{
  "_format": "hh-sol-artifact-1",
  "contractName": "WavePortal",
  "sourceName": "contracts/WavePortal.sol",
  "abi": [
    {
      "inputs": [],
      "stateMutability": "payable",
      "type": "constructor"
    },
    {
      "anonymous": false,
      "inputs": [
        {
          "indexed": true,
          "internalType": "address",
          "name": "from",
          "type": "address"
        },
        {
          "indexed": false,
          "internalType": "uint256",
          "name": "timestamp",
          "type": "uint256"
        },
        {
          "indexed": false,
          "internalType": "string",
          "name": "message",
          "type": "string"
        }
      ],
      "name": "WaveCreated",
      "type": "event"
    },
    {
      "inputs": [],
      "name": "getAllWaves",
      "outputs": [
        {
          "components": [
            {
              "internalType": "address",
              "name": "owner",
              "type": "address"
            },
            {
              "internalType": "string",
              "name": "message",
              "type": "string"
            },
            {
              "internalType": "uint256",
              "name": "timestamp",
              "type": "uint256"
            }
          ],
          "internalType": "struct WavePortal.Wave[]",
          "name": "",
          "type": "tuple[]"
        }
      ],
      "stateMutability": "view",
      "type": "function"
    },
    {
      "inputs": [],
      "name": "getTotalWaves",
      "outputs": [
        {
          "internalType": "uint256",
          "name": "",
          "type": "uint256"
        }
      ],
      "stateMutability": "view",
      "type": "function"
    },
    {
      "inputs": [
        {
          "internalType": "address",
          "name": "",
          "type": "address"
        }
      ],
      "name": "lastWavesAt",
      "outputs": [
        {
          "internalType": "uint256",
          "name": "",
          "type": "uint256"
        }
      ],
      "stateMutability": "view",
      "type": "function"
    },
    {
      "inputs": [
        {
          "internalType": "string",
          "name": "_message",
          "type": "string"
        }
      ],
      "name": "wave",
      "outputs": [],
      "stateMutability": "payable",
      "type": "function"
    }
  ],
  "bytecode": "0x608060405262000033604051806060016040528060238152602001620015a5602391396200006a60201b6200065f1760201c565b60646001544244620000469190620001b7565b620000529190620001b7565b6200005e919062000254565b600181905550620002fb565b6200010a8160405160240162000081919062000177565b6040516020818303038152906040527f41304fac000000000000000000000000000000000000000000000000000000007bffffffffffffffffffffffffffffffffffffffffffffffffffffffff19166020820180517bffffffffffffffffffffffffffffffffffffffffffffffffffffffff83818316178352505050506200010d60201b60201c565b50565b60008151905060006a636f6e736f6c652e6c6f679050602083016000808483855afa5050505050565b600062000143826200019b565b6200014f8185620001a6565b9350620001618185602086016200021e565b6200016c81620002ea565b840191505092915050565b6000602082019050818103600083015262000193818462000136565b905092915050565b600081519050919050565b600082825260208201905092915050565b6000620001c48262000214565b9150620001d18362000214565b9250827fffffffffffffffffffffffffffffffffffffffffffffffffffffffffffffffff038211156200020957620002086200028c565b5b828201905092915050565b6000819050919050565b60005b838110156200023e57808201518184015260208101905062000221565b838111156200024e576000848401525b50505050565b6000620002618262000214565b91506200026e8362000214565b925082620002815762000280620002bb565b5b828206905092915050565b7f4e487b7100000000000000000000000000000000000000000000000000000000600052601160045260246000fd5b7f4e487b7100000000000000000000000000000000000000000000000000000000600052601260045260246000fd5b6000601f19601f8301169050919050565b61129a806200030b6000396000f3fe60806040526004361061003f5760003560e01c8063449d46c0146100445780639a2cdc0814610060578063bd43a9081461008b578063c47742b9146100b6575b600080fd5b61005e60048036038101906100599190610a41565b6100f3565b005b34801561006c57600080fd5b506100756104ab565b6040516100829190610df3565b60405180910390f35b34801561009757600080fd5b506100a06104f6565b6040516100ad9190610caa565b60405180910390f35b3480156100c257600080fd5b506100dd60048036038101906100d89190610a18565b610647565b6040516100ea9190610df3565b60405180910390f35b42603c600260003373ffffffffffffffffffffffffffffffffffffffff1673ffffffffffffffffffffffffffffffffffffffff168152602001908152602001600020546101409190610f05565b10610180576040517f08c379a000000000000000000000000000000000000000000000000000000000815260040161017790610dd3565b60405180910390fd5b42600260003373ffffffffffffffffffffffffffffffffffffffff1673ffffffffffffffffffffffffffffffffffffffff168152602001908152602001600020819055506000808154809291906101d69061103c565b919050555061021b6040518060400160405280601c81526020017f25732068617320776176656420772f206d657373616765203a2025730000000081525033836106f8565b600360405180606001604052803373ffffffffffffffffffffffffffffffffffffffff16815260200183815260200142815250908060018154018082558091505060019003906000526020600020906003020160009091909190915060008201518160000160006101000a81548173ffffffffffffffffffffffffffffffffffffffff021916908373ffffffffffffffffffffffffffffffffffffffff16021790555060208201518160010190805190602001906102da9291906108f8565b506040820151816002015550503373ffffffffffffffffffffffffffffffffffffffff167f142a640438c6672a31ee075c0a92ac5b65703bbe9ff29b465fc3e6c7b4475b40428360405161032f929190610e0e565b60405180910390a2606460015442446103489190610f05565b6103529190610f05565b61035c9190611085565b6001819055506032600154116104a8576103ab6040518060400160405280601281526020017f436f6e6772617473212120257320776f6e21000000000000000000000000000081525033610797565b6000655af3107a40009050478111156103f9576040517f08c379a00000000000000000000000000000000000000000000000000000000081526004016103f090610d93565b60405180910390fd5b60003373ffffffffffffffffffffffffffffffffffffffff168260405161041f90610c95565b60006040518083038185875af1925050503d806000811461045c576040519150601f19603f3d011682016040523d82523d6000602084013e610461565b606091505b50509050806104a5576040517f08c379a000000000000000000000000000000000000000000000000000000000815260040161049c90610db3565b60405180910390fd5b50505b50565b60006104ee6040518060400160405280600f81526020017f546f74616c2077617665733a2025730000000000000000000000000000000000815250600054610833565b600054905090565b60606003805480602002602001604051908101604052809291908181526020016000905b8282101561063e57838290600052602060002090600302016040518060600160405290816000820160009054906101000a900473ffffffffffffffffffffffffffffffffffffffff1673ffffffffffffffffffffffffffffffffffffffff1673ffffffffffffffffffffffffffffffffffffffff1681526020016001820180546105a390610fd9565b80601f01602080910402602001604051908101604052809291908181526020018280546105cf90610fd9565b801561061c5780601f106105f15761010080835404028352916020019161061c565b820191906000526020600020905b8154815290600101906020018083116105ff57829003601f168201915b505050505081526020016002820154815250508152602001906001019061051a565b50505050905090565b60026020528060005260406000206000915090505481565b6106f5816040516024016106739190610ccc565b6040516020818303038152906040527f41304fac000000000000000000000000000000000000000000000000000000007bffffffffffffffffffffffffffffffffffffffffffffffffffffffff19166020820180517bffffffffffffffffffffffffffffffffffffffffffffffffffffffff83818316178352505050506108cf565b50565b61079283838360405160240161071093929190610d1e565b6040516020818303038152906040527fe0e9ad4f000000000000000000000000000000000000000000000000000000007bffffffffffffffffffffffffffffffffffffffffffffffffffffffff19166020820180517bffffffffffffffffffffffffffffffffffffffffffffffffffffffff83818316178352505050506108cf565b505050565b61082f82826040516024016107ad929190610cee565b6040516020818303038152906040527f319af333000000000000000000000000000000000000000000000000000000007bffffffffffffffffffffffffffffffffffffffffffffffffffffffff19166020820180517bffffffffffffffffffffffffffffffffffffffffffffffffffffffff83818316178352505050506108cf565b5050565b6108cb8282604051602401610849929190610d63565b6040516020818303038152906040527f9710a9d0000000000000000000000000000000000000000000000000000000007bffffffffffffffffffffffffffffffffffffffffffffffffffffffff19166020820180517bffffffffffffffffffffffffffffffffffffffffffffffffffffffff83818316178352505050506108cf565b5050565b60008151905060006a636f6e736f6c652e6c6f679050602083016000808483855afa5050505050565b82805461090490610fd9565b90600052602060002090601f016020900481019282610926576000855561096d565b82601f1061093f57805160ff191683800117855561096d565b8280016001018555821561096d579182015b8281111561096c578251825591602001919060010190610951565b5b50905061097a919061097e565b5090565b5b8082111561099757600081600090555060010161097f565b5090565b60006109ae6109a984610e63565b610e3e565b9050828152602081018484840111156109c657600080fd5b6109d1848285610f97565b509392505050565b6000813590506109e88161124d565b92915050565b600082601f8301126109ff57600080fd5b8135610a0f84826020860161099b565b91505092915050565b600060208284031215610a2a57600080fd5b6000610a38848285016109d9565b91505092915050565b600060208284031215610a5357600080fd5b600082013567ffffffffffffffff811115610a6d57600080fd5b610a79848285016109ee565b91505092915050565b6000610a8e8383610c27565b905092915050565b610a9f81610f5b565b82525050565b610aae81610f5b565b82525050565b6000610abf82610ea4565b610ac98185610ec7565b935083602082028501610adb85610e94565b8060005b85811015610b175784840389528151610af88582610a82565b9450610b0383610eba565b925060208a01995050600181019050610adf565b50829750879550505050505092915050565b6000610b3482610eaf565b610b3e8185610ee3565b9350610b4e818560208601610fa6565b610b5781611172565b840191505092915050565b6000610b6d82610eaf565b610b778185610ef4565b9350610b87818560208601610fa6565b610b9081611172565b840191505092915050565b6000610ba8602483610ef4565b9150610bb382611183565b604082019050919050565b6000610bcb602b83610ef4565b9150610bd6826111d2565b604082019050919050565b6000610bee600083610ed8565b9150610bf982611221565b600082019050919050565b6000610c11601583610ef4565b9150610c1c82611224565b602082019050919050565b6000606083016000830151610c3f6000860182610a96565b5060208301518482036020860152610c578282610b29565b9150506040830151610c6c6040860182610c77565b508091505092915050565b610c8081610f8d565b82525050565b610c8f81610f8d565b82525050565b6000610ca082610be1565b9150819050919050565b60006020820190508181036000830152610cc48184610ab4565b905092915050565b60006020820190508181036000830152610ce68184610b62565b905092915050565b60006040820190508181036000830152610d088185610b62565b9050610d176020830184610aa5565b9392505050565b60006060820190508181036000830152610d388186610b62565b9050610d476020830185610aa5565b8181036040830152610d598184610b62565b9050949350505050565b60006040820190508181036000830152610d7d8185610b62565b9050610d8c6020830184610c86565b9392505050565b60006020820190508181036000830152610dac81610b9b565b9050919050565b60006020820190508181036000830152610dcc81610bbe565b9050919050565b60006020820190508181036000830152610dec81610c04565b9050919050565b6000602082019050610e086000830184610c86565b92915050565b6000604082019050610e236000830185610c86565b8181036020830152610e358184610b62565b90509392505050565b6000610e48610e59565b9050610e54828261100b565b919050565b6000604051905090565b600067ffffffffffffffff821115610e7e57610e7d611143565b5b610e8782611172565b9050602081019050919050565b6000819050602082019050919050565b600081519050919050565b600081519050919050565b6000602082019050919050565b600082825260208201905092915050565b600081905092915050565b600082825260208201905092915050565b600082825260208201905092915050565b6000610f1082610f8d565b9150610f1b83610f8d565b9250827fffffffffffffffffffffffffffffffffffffffffffffffffffffffffffffffff03821115610f5057610f4f6110b6565b5b828201905092915050565b6000610f6682610f6d565b9050919050565b600073ffffffffffffffffffffffffffffffffffffffff82169050919050565b6000819050919050565b82818337600083830152505050565b60005b83811015610fc4578082015181840152602081019050610fa9565b83811115610fd3576000848401525b50505050565b60006002820490506001821680610ff157607f821691505b6020821081141561100557611004611114565b5b50919050565b61101482611172565b810181811067ffffffffffffffff8211171561103357611032611143565b5b80604052505050565b600061104782610f8d565b91507fffffffffffffffffffffffffffffffffffffffffffffffffffffffffffffffff82141561107a576110796110b6565b5b600182019050919050565b600061109082610f8d565b915061109b83610f8d565b9250826110ab576110aa6110e5565b5b828206905092915050565b7f4e487b7100000000000000000000000000000000000000000000000000000000600052601160045260246000fd5b7f4e487b7100000000000000000000000000000000000000000000000000000000600052601260045260246000fd5b7f4e487b7100000000000000000000000000000000000000000000000000000000600052602260045260246000fd5b7f4e487b7100000000000000000000000000000000000000000000000000000000600052604160045260246000fd5b6000601f19601f8301169050919050565b7f4c4f4c21204e6f206d6f6e6579206c65667420696e2074686520636f6e74726160008201527f6374212100000000000000000000000000000000000000000000000000000000602082015250565b7f4661696c656420746f2077697468647261772065746865722066726f6d20746860008201527f6520636f6e74726163742e000000000000000000000000000000000000000000602082015250565b50565b7f576169742031206d6f7265206d696e7574652e2e2e0000000000000000000000600082015250565b61125681610f5b565b811461126157600080fd5b5056fea2646970667358221220a8eed50a6534706194ab981ca4cea0fda81640b23b1bdb561ef3c705183f354e64736f6c63430008040033596f20796f2c204920616d206120636f6e7472616374206d616465206279206d652021",
  "linkReferences": {},
  "deployedLinkReferences": {}
}